H                    FIDELITY SYSTEMS    REQ MIN DISTRIBUTION 03282025                                                                                                                                                                                                                                                                                                                                                                                                                                              
CH VANTAGE FINANCIAL                                                                                                                                                                                                                                                                                                                                                                                                                                                                                                
D207676624000   20110909IRRL00000000001272082+1951062500000000000000000+02550+U00000000000000000+00000000000000000+00000000000049886+                                                                                                                                                                                                                                                                                                                                                                               
D225720873000   20180914IRRL00000000053812956+1952082600000000000000000+02650+U00000000000000000+00000000000000000+00000000002030678+                                                                                                                                                                                                                                                                                                                                                                               
D231360344000   20190823IRAB00000000008012712+1969081100000000000000000+00000+ 00000000000000000+00000000000000000+00000000000000000+                                                                                                                                                                                                                                                                                                                                                                               
D231364714000   20190905IRA 00000000000000000+1951012700000000000000000+02550+U00000000000000000+00000000000000000+00000000000000000+                                                                                                                                                                                                                                                                                                                                                                               
D237610076000   20210908IRAB00000000005299474+1962060900000000000000000+00000+ 00000000000000000+00000000000000000+00000000000000000+                                                                                                                                                                                                                                                                                                                                                                               
D237979407000   20221207IRAB00000000002497788+1965070300000000002519966+00000+ 00000000000000000+00000000000000000+00000000000000000+                                                                                                                                                                                                                                                                                                                                                                               
D238612026000   20220417RTHB00000000000923675+1966042200000000000000000+00000+ 00000000000000000+00000000000000000+00000000000000000+                                                                                                                                                                                                                                                                                                                                                                               
D241499114000   20221207IRAB00000000001005600+1965070300000000001007966+00000+ 00000000000000000+00000000000000000+00000000000000000+                                                                                                                                                                                                                                                                                                                                                                               
D244096083000   20220417IRAB00000000012264103+1966042200000000000000000+00000+ 00000000000000000+00000000000000000+00000000000000000+                                                                                                                                                                                                                                                                                                                                                                               
D244618214000   20240101RTHB00000000010839734+1960083100000000000000000+00000+ 00000000000000000+00000000000000000+00000000000000000+                                                                                                                                                                                                                                                                                                                                                                               
D245126204000   20221130IRAB00000000007747215+1968081400000000000000000+00000+ 00000000000000000+00000000000000000+00000000000000000+                                                                                                                                                                                                                                                                                                                                                                               
D628069482000   20191016IRA 00000000088915758+1952060400000000001411764+02650+U00000000000000000+00000000004235292+00000000003355312+                                                                                                                                                                                                                                                                                                                                                                               
D628069486000   20191016IRA 00000000014984699+1945122000000000000050000+02020+U00000000000000000+00000000000150000+00000000000741817+                                                                                                                                                                                                                                                                                                                                                                               
D628069506000   20191016IRA 00000000000000000+1952110500000000000000000+02650+U00000000000000000+00000000000000000+00000000000000000+                                                                                                                                                                                                                                                                                                                                                                               
D628069511000   20191016IRAB00000000001112457+1954103100000000000000000+00000+ 00000000000000000+00000000000000000+00000000000000000+   